{
	"_format": "hh-sol-artifact-1",
	"contractName": "Socoin",
	"sourceName": "contracts/Socoin.sol",
	"abi": [
		{
			"inputs": [],
			"stateMutability": "nonpayable",
			"type": "constructor"
		},
		{
			"anonymous": false,
			"inputs": [
				{
					"indexed": false,
					"internalType": "address",
					"name": "",
					"type": "address"
				},
				{
					"indexed": false,
					"internalType": "string",
					"name": "",
					"type": "string"
				},
				{
					"indexed": false,
					"internalType": "string",
					"name": "",
					"type": "string"
				},
				{
					"indexed": false,
					"internalType": "string",
					"name": "",
					"type": "string"
				}
			],
			"name": "NewPostCreated",
			"type": "event"
		},
		{
			"anonymous": false,
			"inputs": [
				{
					"indexed": true,
					"internalType": "address",
					"name": "from",
					"type": "address"
				},
				{
					"indexed": true,
					"internalType": "address",
					"name": "to",
					"type": "address"
				},
				{
					"indexed": false,
					"internalType": "uint256",
					"name": "amount",
					"type": "uint256"
				}
			],
			"name": "TipSent",
			"type": "event"
		},
		{
			"anonymous": false,
			"inputs": [
				{
					"indexed": false,
					"internalType": "string",
					"name": "username",
					"type": "string"
				},
				{
					"indexed": false,
					"internalType": "uint256",
					"name": "user_id",
					"type": "uint256"
				},
				{
					"indexed": false,
					"internalType": "uint256",
					"name": "token",
					"type": "uint256"
				},
				{
					"indexed": false,
					"internalType": "uint256[]",
					"name": "array",
					"type": "uint256[]"
				},
				{
					"indexed": false,
					"internalType": "uint256",
					"name": "tip",
					"type": "uint256"
				}
			],
			"name": "userDataEvent",
			"type": "event"
		},
		{
			"inputs": [
				{
					"internalType": "string",
					"name": "",
					"type": "string"
				},
				{
					"internalType": "uint256",
					"name": "",
					"type": "uint256"
				}
			],
			"name": "access",
			"outputs": [
				{
					"internalType": "address",
					"name": "",
					"type": "address"
				}
			],
			"stateMutability": "view",
			"type": "function"
		},
		{
			"inputs": [
				{
					"internalType": "string",
					"name": "_postIndex",
					"type": "string"
				},
				{
					"internalType": "string",
					"name": "_comment",
					"type": "string"
				}
			],
			"name": "addComment",
			"outputs": [],
			"stateMutability": "nonpayable",
			"type": "function"
		},
		{
			"inputs": [
				{
					"internalType": "string",
					"name": "_postIndex",
					"type": "string"
				},
				{
					"internalType": "string",
					"name": "_comment",
					"type": "string"
				}
			],
			"name": "addPrivateComment",
			"outputs": [],
			"stateMutability": "nonpayable",
			"type": "function"
		},
		{
			"inputs": [
				{
					"internalType": "string",
					"name": "_postId",
					"type": "string"
				}
			],
			"name": "buyPrivatePost",
			"outputs": [],
			"stateMutability": "nonpayable",
			"type": "function"
		},
		{
			"inputs": [
				{
					"internalType": "string",
					"name": "",
					"type": "string"
				},
				{
					"internalType": "uint256",
					"name": "",
					"type": "uint256"
				}
			],
			"name": "comments",
			"outputs": [
				{
					"internalType": "string",
					"name": "",
					"type": "string"
				}
			],
			"stateMutability": "view",
			"type": "function"
		},
		{
			"inputs": [
				{
					"internalType": "string",
					"name": "_img",
					"type": "string"
				},
				{
					"internalType": "string",
					"name": "_postId",
					"type": "string"
				},
				{
					"internalType": "string",
					"name": "_description",
					"type": "string"
				},
				{
					"internalType": "string",
					"name": "_hashtag",
					"type": "string"
				}
			],
			"name": "createPost",
			"outputs": [],
			"stateMutability": "nonpayable",
			"type": "function"
		},
		{
			"inputs": [
				{
					"internalType": "string",
					"name": "_img",
					"type": "string"
				},
				{
					"internalType": "string",
					"name": "_postId",
					"type": "string"
				},
				{
					"internalType": "string",
					"name": "_description",
					"type": "string"
				},
				{
					"internalType": "uint256",
					"name": "_price",
					"type": "uint256"
				}
			],
			"name": "createPrivatePost",
			"outputs": [],
			"stateMutability": "nonpayable",
			"type": "function"
		},
		{
			"inputs": [
				{
					"internalType": "string",
					"name": "_username",
					"type": "string"
				},
				{
					"internalType": "uint256",
					"name": "_user_id",
					"type": "uint256"
				}
			],
			"name": "createUser",
			"outputs": [],
			"stateMutability": "nonpayable",
			"type": "function"
		},
		{
			"inputs": [
				{
					"internalType": "string",
					"name": "key",
					"type": "string"
				}
			],
			"name": "getComments",
			"outputs": [
				{
					"internalType": "string[]",
					"name": "",
					"type": "string[]"
				}
			],
			"stateMutability": "view",
			"type": "function"
		},
		{
			"inputs": [
				{
					"internalType": "string",
					"name": "key",
					"type": "string"
				}
			],
			"name": "getPost",
			"outputs": [
				{
					"components": [
						{
							"internalType": "uint256",
							"name": "user_id",
							"type": "uint256"
						},
						{
							"internalType": "string",
							"name": "post_content",
							"type": "string"
						},
						{
							"internalType": "string",
							"name": "unique_code",
							"type": "string"
						},
						{
							"internalType": "uint256",
							"name": "likes",
							"type": "uint256"
						},
						{
							"internalType": "address",
							"name": "owner",
							"type": "address"
						},
						{
							"internalType": "string",
							"name": "img",
							"type": "string"
						}
					],
					"internalType": "struct Socoin.Post",
					"name": "",
					"type": "tuple"
				}
			],
			"stateMutability": "view",
			"type": "function"
		},
		{
			"inputs": [
				{
					"internalType": "string",
					"name": "key",
					"type": "string"
				}
			],
			"name": "getPrivateComments",
			"outputs": [
				{
					"internalType": "string[]",
					"name": "",
					"type": "string[]"
				}
			],
			"stateMutability": "view",
			"type": "function"
		},
		{
			"inputs": [
				{
					"internalType": "string",
					"name": "key",
					"type": "string"
				}
			],
			"name": "getPrivatePost",
			"outputs": [
				{
					"components": [
						{
							"internalType": "uint256",
							"name": "user_id",
							"type": "uint256"
						},
						{
							"internalType": "string",
							"name": "post_content",
							"type": "string"
						},
						{
							"internalType": "uint256",
							"name": "likes",
							"type": "uint256"
						},
						{
							"internalType": "address",
							"name": "owner",
							"type": "address"
						},
						{
							"internalType": "uint256",
							"name": "price",
							"type": "uint256"
						},
						{
							"internalType": "string",
							"name": "img",
							"type": "string"
						}
					],
					"internalType": "struct Socoin.privatePost",
					"name": "",
					"type": "tuple"
				}
			],
			"stateMutability": "view",
			"type": "function"
		},
		{
			"inputs": [
				{
					"internalType": "address",
					"name": "userAddress",
					"type": "address"
				}
			],
			"name": "getUserData",
			"outputs": [
				{
					"components": [
						{
							"internalType": "string",
							"name": "username",
							"type": "string"
						},
						{
							"internalType": "uint256",
							"name": "user_id",
							"type": "uint256"
						},
						{
							"internalType": "uint256",
							"name": "token",
							"type": "uint256"
						},
						{
							"internalType": "uint256[]",
							"name": "array",
							"type": "uint256[]"
						},
						{
							"internalType": "uint256",
							"name": "tip",
							"type": "uint256"
						}
					],
					"internalType": "struct Socoin.User",
					"name": "",
					"type": "tuple"
				}
			],
			"stateMutability": "nonpayable",
			"type": "function"
		},
		{
			"inputs": [
				{
					"internalType": "address",
					"name": "userAddress",
					"type": "address"
				}
			],
			"name": "getUserPost",
			"outputs": [
				{
					"internalType": "string[]",
					"name": "",
					"type": "string[]"
				}
			],
			"stateMutability": "view",
			"type": "function"
		},
		{
			"inputs": [
				{
					"internalType": "string",
					"name": "_postId",
					"type": "string"
				}
			],
			"name": "like",
			"outputs": [],
			"stateMutability": "nonpayable",
			"type": "function"
		},
		{
			"inputs": [
				{
					"internalType": "address",
					"name": "_walletAddress",
					"type": "address"
				}
			],
			"name": "login",
			"outputs": [
				{
					"internalType": "uint256",
					"name": "",
					"type": "uint256"
				}
			],
			"stateMutability": "view",
			"type": "function"
		},
		{
			"inputs": [],
			"name": "manager",
			"outputs": [
				{
					"internalType": "address",
					"name": "",
					"type": "address"
				}
			],
			"stateMutability": "view",
			"type": "function"
		},
		{
			"inputs": [
				{
					"internalType": "string",
					"name": "",
					"type": "string"
				}
			],
			"name": "post",
			"outputs": [
				{
					"internalType": "uint256",
					"name": "user_id",
					"type": "uint256"
				},
				{
					"internalType": "string",
					"name": "post_content",
					"type": "string"
				},
				{
					"internalType": "string",
					"name": "unique_code",
					"type": "string"
				},
				{
					"internalType": "uint256",
					"name": "likes",
					"type": "uint256"
				},
				{
					"internalType": "address",
					"name": "owner",
					"type": "address"
				},
				{
					"internalType": "string",
					"name": "img",
					"type": "string"
				}
			],
			"stateMutability": "view",
			"type": "function"
		},
		{
			"inputs": [
				{
					"internalType": "string",
					"name": "_postId",
					"type": "string"
				}
			],
			"name": "privateLike",
			"outputs": [],
			"stateMutability": "nonpayable",
			"type": "function"
		},
		{
			"inputs": [
				{
					"internalType": "string",
					"name": "",
					"type": "string"
				},
				{
					"internalType": "uint256",
					"name": "",
					"type": "uint256"
				}
			],
			"name": "private_comments",
			"outputs": [
				{
					"internalType": "string",
					"name": "",
					"type": "string"
				}
			],
			"stateMutability": "view",
			"type": "function"
		},
		{
			"inputs": [
				{
					"internalType": "string",
					"name": "",
					"type": "string"
				}
			],
			"name": "private_post",
			"outputs": [
				{
					"internalType": "uint256",
					"name": "user_id",
					"type": "uint256"
				},
				{
					"internalType": "string",
					"name": "post_content",
					"type": "string"
				},
				{
					"internalType": "uint256",
					"name": "likes",
					"type": "uint256"
				},
				{
					"internalType": "address",
					"name": "owner",
					"type": "address"
				},
				{
					"internalType": "uint256",
					"name": "price",
					"type": "uint256"
				},
				{
					"internalType": "string",
					"name": "img",
					"type": "string"
				}
			],
			"stateMutability": "view",
			"type": "function"
		},
		{
			"inputs": [
				{
					"internalType": "address",
					"name": "_user",
					"type": "address"
				}
			],
			"name": "rewardUser",
			"outputs": [],
			"stateMutability": "nonpayable",
			"type": "function"
		},
		{
			"inputs": [],
			"name": "solTokenPool",
			"outputs": [
				{
					"internalType": "uint256",
					"name": "",
					"type": "uint256"
				}
			],
			"stateMutability": "view",
			"type": "function"
		},
		{
			"inputs": [
				{
					"internalType": "address",
					"name": "_to",
					"type": "address"
				},
				{
					"internalType": "uint256",
					"name": "_amount",
					"type": "uint256"
				}
			],
			"name": "tip",
			"outputs": [],
			"stateMutability": "nonpayable",
			"type": "function"
		},
		{
			"inputs": [
				{
					"internalType": "address",
					"name": "",
					"type": "address"
				},
				{
					"internalType": "uint256",
					"name": "",
					"type": "uint256"
				}
			],
			"name": "userPost",
			"outputs": [
				{
					"internalType": "string",
					"name": "",
					"type": "string"
				}
			],
			"stateMutability": "view",
			"type": "function"
		},
		{
			"inputs": [
				{
					"internalType": "address",
					"name": "",
					"type": "address"
				}
			],
			"name": "user_data",
			"outputs": [
				{
					"internalType": "string",
					"name": "username",
					"type": "string"
				},
				{
					"internalType": "uint256",
					"name": "user_id",
					"type": "uint256"
				},
				{
					"internalType": "uint256",
					"name": "token",
					"type": "uint256"
				},
				{
					"internalType": "uint256",
					"name": "tip",
					"type": "uint256"
				}
			],
			"stateMutability": "view",
			"type": "function"
		}
	],
	"bytecode": "0x60806040526302faf08060085534801561001857600080fd5b50336000806101000a81548173ffffffffffffffffffffffffffffffffffffffff021916908373ffffffffffffffffffffffffffffffffffffffff160217905550614130806100686000396000f3fe608060405234801561001057600080fd5b506004361061018e5760003560e01c806370c63fcc116100de578063aaf6383911610097578063d92830ef11610071578063d92830ef146104e8578063df4a259b14610518578063df6faf3114610548578063ffc9896b146105645761018e565b8063aaf6383914610480578063ae5ff905146104b0578063d67a3c1f146104cc5761018e565b806370c63fcc1461038057806371fa46db146103b05780638b6fc452146103e05780638ee93cf3146103fc5780639f00390914610431578063a6afd7db146104645761018e565b80633d8b57c51161014b5780634a581625116101255780634a581625146102e6578063515caec5146103165780635ab2ca7a146103465780636a864ea9146103645761018e565b80633d8b57c51461027c578063481c6a75146102ac57806349ec115a146102ca5761018e565b80630d57f91f14610193578063112faa73146101af578063121ef243146101df5780632cff005e146101fb5780632edf21681461023057806335a6861a1461024c575b600080fd5b6101ad60048036038101906101a89190612fe2565b610594565b005b6101c960048036038101906101c49190613117565b6107a4565b6040516101d69190613285565b60405180910390f35b6101f960048036038101906101f491906132dd565b6108bc565b005b61021560048036038101906102109190613339565b6109df565b604051610227969594939291906133ea565b60405180910390f35b61024a60048036038101906102459190613339565b610b61565b005b61026660048036038101906102619190613117565b610e1c565b6040516102739190613459565b60405180910390f35b61029660048036038101906102919190613474565b610e6a565b6040516102a391906134b4565b60405180910390f35b6102b4610f23565b6040516102c191906134d6565b60405180910390f35b6102e460048036038101906102df91906134f1565b610f47565b005b61030060048036038101906102fb9190613339565b61113b565b60405161030d9190613285565b60405180910390f35b610330600480360381019061032b9190613339565b611232565b60405161033d9190613617565b60405180910390f35b61034e611402565b60405161035b9190613459565b60405180910390f35b61037e60048036038101906103799190613339565b611408565b005b61039a60048036038101906103959190613339565b611528565b6040516103a79190613285565b60405180910390f35b6103ca60048036038101906103c591906132dd565b61161f565b6040516103d791906134d6565b60405180910390f35b6103fa60048036038101906103f59190613474565b611683565b005b61041660048036038101906104119190613339565b611817565b60405161042896959493929190613639565b60405180910390f35b61044b60048036038101906104469190613117565b611a21565b60405161045b94939291906136af565b60405180910390f35b61047e60048036038101906104799190613117565b611ad9565b005b61049a600480360381019061049591906132dd565b611d65565b6040516104a791906134b4565b60405180910390f35b6104ca60048036038101906104c591906134f1565b611e34565b005b6104e660048036038101906104e19190613339565b611fef565b005b61050260048036038101906104fd91906132dd565b612240565b60405161050f91906134b4565b60405180910390f35b610532600480360381019061052d9190613339565b61230f565b60405161053f9190613792565b60405180910390f35b610562600480360381019061055d91906137b4565b612567565b005b61057e60048036038101906105799190613117565b6129b2565b60405161058b919061399b565b60405180910390f35b600f600360003373ffffffffffffffffffffffffffffffffffffffff1673ffffffffffffffffffffffffffffffffffffffff1681526020019081526020016000206002015410156105e457600080fd5b600f600360003373ffffffffffffffffffffffffffffffffffffffff1673ffffffffffffffffffffffffffffffffffffffff168152602001908152602001600020600201600082825461063791906139ec565b92505081905550600f600860008282546106519190613a20565b9250508190555060006040518060c0016040528060018152602001848152602001838152602001600081526020013373ffffffffffffffffffffffffffffffffffffffff168152602001868152509050806001856040516106b29190613a90565b90815260200160405180910390206000820151816000015560208201518160010190816106df9190613cb3565b5060408201518160020190816106f59190613cb3565b506060820151816003015560808201518160040160006101000a81548173ffffffffffffffffffffffffffffffffffffffff021916908373ffffffffffffffffffffffffffffffffffffffff16021790555060a082015181600501908161075c9190613cb3565b509050507fc17971552e53d0f7b5b971aee2df2145166de372ee29adad15ad3f01973be03f338585856040516107959493929190613d85565b60405180910390a15050505050565b6060600260008373ffffffffffffffffffffffffffffffffffffffff1673ffffffffffffffffffffffffffffffffffffffff168152602001908152602001600020805480602002602001604051908101604052809291908181526020016000905b828210156108b157838290600052602060002001805461082490613ad6565b80601f016020809104026020016040519081016040528092919081815260200182805461085090613ad6565b801561089d5780601f106108725761010080835404028352916020019161089d565b820191906000526020600020905b81548152906001019060200180831161088057829003601f168201915b505050505081526020019060010190610805565b505050509050919050565b6040518060a0016040528083815260200182815260200160328152602001600067ffffffffffffffff8111156108f5576108f4612eb7565b5b6040519080825280602002602001820160405280156109235781602001602082028036833780820191505090505b5081526020016000815250600360003373ffffffffffffffffffffffffffffffffffffffff1673ffffffffffffffffffffffffffffffffffffffff16815260200190815260200160002060008201518160000190816109829190613cb3565b50602082015181600101556040820151816002015560608201518160030190805190602001906109b3929190612c9a565b50608082015181600401559050506032600860008282546109d491906139ec565b925050819055505050565b600481805160208101820180518482526020830160208501208183528095505050505050600091509050806000015490806001018054610a1e90613ad6565b80601f0160208091040260200160405190810160405280929190818152602001828054610a4a90613ad6565b8015610a975780601f10610a6c57610100808354040283529160200191610a97565b820191906000526020600020905b815481529060010190602001808311610a7a57829003601f168201915b5050505050908060020154908060030160009054906101000a900473ffffffffffffffffffffffffffffffffffffffff1690806004015490806005018054610ade90613ad6565b80601f0160208091040260200160405190810160405280929190818152602001828054610b0a90613ad6565b8015610b575780601f10610b2c57610100808354040283529160200191610b57565b820191906000526020600020905b815481529060010190602001808311610b3a57829003601f168201915b5050505050905086565b600a600360003373ffffffffffffffffffffffffffffffffffffffff1673ffffffffffffffffffffffffffffffffffffffff168152602001908152602001600020600201541015610bb157600080fd5b6002600360003373ffffffffffffffffffffffffffffffffffffffff1673ffffffffffffffffffffffffffffffffffffffff1681526020019081526020016000206002016000828254610c0491906139ec565b92505081905550600260036000600184604051610c219190613a90565b908152602001604051809103902060040160009054906101000a900473ffffffffffffffffffffffffffffffffffffffff1673ffffffffffffffffffffffffffffffffffffffff1673ffffffffffffffffffffffffffffffffffffffff1681526020019081526020016000206002016000828254610c9f9190613a20565b9250508190555060018082604051610cb79190613a90565b90815260200160405180910390206003016000828254610cd79190613a20565b925050819055506000600360003373ffffffffffffffffffffffffffffffffffffffff1673ffffffffffffffffffffffffffffffffffffffff1681526020019081526020016000206003018054905003610d9a57600360003373ffffffffffffffffffffffffffffffffffffffff1673ffffffffffffffffffffffffffffffffffffffff16815260200190815260200160002060030160019080600181540180825580915050600190039060005260206000200160009091909190915055610e10565b600360003373ffffffffffffffffffffffffffffffffffffffff1673ffffffffffffffffffffffffffffffffffffffff168152602001908152602001600020600301600081548110610def57610dee613ddf565b5b906000526020600020016000815480929190610e0a90613e0e565b91905055505b610e1933611ad9565b50565b600080600360008473ffffffffffffffffffffffffffffffffffffffff1673ffffffffffffffffffffffffffffffffffffffff16815260200190815260200160002060010154179050919050565b60026020528160005260406000208181548110610e8657600080fd5b90600052602060002001600091509150508054610ea290613ad6565b80601f0160208091040260200160405190810160405280929190818152602001828054610ece90613ad6565b8015610f1b5780601f10610ef057610100808354040283529160200191610f1b565b820191906000526020600020905b815481529060010190602001808311610efe57829003601f168201915b505050505081565b60008054906101000a900473ffffffffffffffffffffffffffffffffffffffff1681565b6000600483604051610f599190613a90565b90815260200160405180910390206000015411610fab576040517f08c379a0000000000000000000000000000000000000000000000000000000008152600401610fa290613ea2565b60405180910390fd5b600682604051610fbb9190613a90565b908152602001604051809103902081908060018154018082558091505060019003906000526020600020016000909190919091509081610ffb9190613cb3565b506001600360003373ffffffffffffffffffffffffffffffffffffffff1673ffffffffffffffffffffffffffffffffffffffff16815260200190815260200160002060030180549050116110b857600360003373ffffffffffffffffffffffffffffffffffffffff1673ffffffffffffffffffffffffffffffffffffffff1681526020019081526020016000206003016001908060018154018082558091505060019003906000526020600020016000909190919091505561112e565b600360003373ffffffffffffffffffffffffffffffffffffffff1673ffffffffffffffffffffffffffffffffffffffff16815260200190815260200160002060030160018154811061110d5761110c613ddf565b5b90600052602060002001600081548092919061112890613e0e565b91905055505b61113733611ad9565b5050565b606060068260405161114d9190613a90565b9081526020016040518091039020805480602002602001604051908101604052809291908181526020016000905b8282101561122757838290600052602060002001805461119a90613ad6565b80601f01602080910402602001604051908101604052809291908181526020018280546111c690613ad6565b80156112135780601f106111e857610100808354040283529160200191611213565b820191906000526020600020905b8154815290600101906020018083116111f657829003601f168201915b50505050508152602001906001019061117b565b505050509050919050565b61123a612ce7565b60048260405161124a9190613a90565b90815260200160405180910390206040518060c00160405290816000820154815260200160018201805461127d90613ad6565b80601f01602080910402602001604051908101604052809291908181526020018280546112a990613ad6565b80156112f65780601f106112cb576101008083540402835291602001916112f6565b820191906000526020600020905b8154815290600101906020018083116112d957829003601f168201915b50505050508152602001600282015481526020016003820160009054906101000a900473ffffffffffffffffffffffffffffffffffffffff1673ffffffffffffffffffffffffffffffffffffffff1673ffffffffffffffffffffffffffffffffffffffff1681526020016004820154815260200160058201805461137990613ad6565b80601f01602080910402602001604051908101604052809291908181526020018280546113a590613ad6565b80156113f25780601f106113c7576101008083540402835291602001916113f2565b820191906000526020600020905b8154815290600101906020018083116113d557829003601f168201915b5050505050815250509050919050565b60085481565b600060048260405161141a9190613a90565b9081526020016040518091039020600001541161146c576040517f08c379a000000000000000000000000000000000000000000000000000000000815260040161146390613ea2565b60405180910390fd5b600160048260405161147e9190613a90565b9081526020016040518091039020600201600082825461149e9190613a20565b925050819055506001600360003373ffffffffffffffffffffffffffffffffffffffff1673ffffffffffffffffffffffffffffffffffffffff1681526020019081526020016000206003016000815481106114fc576114fb613ddf565b5b9060005260206000200160008282546115159190613a20565b9250508190555061152533611ad9565b50565b606060058260405161153a9190613a90565b9081526020016040518091039020805480602002602001604051908101604052809291908181526020016000905b8282101561161457838290600052602060002001805461158790613ad6565b80601f01602080910402602001604051908101604052809291908181526020018280546115b390613ad6565b80156116005780601f106115d557610100808354040283529160200191611600565b820191906000526020600020905b8154815290600101906020018083116115e357829003601f168201915b505050505081526020019060010190611568565b505050509050919050565b600782805160208101820180518482526020830160208501208183528095505050505050818154811061165157600080fd5b906000526020600020016000915091509054906101000a900473ffffffffffffffffffffffffffffffffffffffff1681565b80600360003373ffffffffffffffffffffffffffffffffffffffff1673ffffffffffffffffffffffffffffffffffffffff168152602001908152602001600020600201541015611708576040517f08c379a00000000000000000000000000000000000000000000000000000000081526004016116ff90613f0e565b60405180910390fd5b80600360003373ffffffffffffffffffffffffffffffffffffffff1673ffffffffffffffffffffffffffffffffffffffff168152602001908152602001600020600201600082825461175a91906139ec565b9250508190555080600360008473ffffffffffffffffffffffffffffffffffffffff1673ffffffffffffffffffffffffffffffffffffffff16815260200190815260200160002060020160008282546117b39190613a20565b9250508190555080600360008473ffffffffffffffffffffffffffffffffffffffff1673ffffffffffffffffffffffffffffffffffffffff168152602001908152602001600020600401600082825461180c9190613a20565b925050819055505050565b60018180516020810182018051848252602083016020850120818352809550505050505060009150905080600001549080600101805461185690613ad6565b80601f016020809104026020016040519081016040528092919081815260200182805461188290613ad6565b80156118cf5780601f106118a4576101008083540402835291602001916118cf565b820191906000526020600020905b8154815290600101906020018083116118b257829003601f168201915b5050505050908060020180546118e490613ad6565b80601f016020809104026020016040519081016040528092919081815260200182805461191090613ad6565b801561195d5780601f106119325761010080835404028352916020019161195d565b820191906000526020600020905b81548152906001019060200180831161194057829003601f168201915b5050505050908060030154908060040160009054906101000a900473ffffffffffffffffffffffffffffffffffffffff169080600501805461199e90613ad6565b80601f01602080910402602001604051908101604052809291908181526020018280546119ca90613ad6565b8015611a175780601f106119ec57610100808354040283529160200191611a17565b820191906000526020600020905b8154815290600101906020018083116119fa57829003601f168201915b5050505050905086565b6003602052806000526040600020600091509050806000018054611a4490613ad6565b80601f0160208091040260200160405190810160405280929190818152602001828054611a7090613ad6565b8015611abd5780601f10611a9257610100808354040283529160200191611abd565b820191906000526020600020905b815481529060010190602001808311611aa057829003601f168201915b5050505050908060010154908060020154908060040154905084565b6002600360008373ffffffffffffffffffffffffffffffffffffffff1673ffffffffffffffffffffffffffffffffffffffff16815260200190815260200160002060030180549050148015611b8e5750600a600360008373ffffffffffffffffffffffffffffffffffffffff1673ffffffffffffffffffffffffffffffffffffffff168152602001908152602001600020600301600181548110611b8057611b7f613ddf565b5b906000526020600020015410155b8015611bfa57506001600360008373ffffffffffffffffffffffffffffffffffffffff1673ffffffffffffffffffffffffffffffffffffffff168152602001908152602001600020600301600081548110611bec57611beb613ddf565b5b906000526020600020015410155b15611d62576032600360008373ffffffffffffffffffffffffffffffffffffffff1673ffffffffffffffffffffffffffffffffffffffff1681526020019081526020016000206002016000828254611c529190613a20565b92505081905550603260086000828254611c6c91906139ec565b925050819055506001600360008373ffffffffffffffffffffffffffffffffffffffff1673ffffffffffffffffffffffffffffffffffffffff168152602001908152602001600020600301600081548110611cca57611cc9613ddf565b5b906000526020600020016000828254611ce391906139ec565b92505081905550600a600360008373ffffffffffffffffffffffffffffffffffffffff1673ffffffffffffffffffffffffffffffffffffffff168152602001908152602001600020600301600181548110611d4157611d40613ddf565b5b906000526020600020016000828254611d5a91906139ec565b925050819055505b50565b6005828051602081018201805184825260208301602085012081835280955050505050508181548110611d9757600080fd5b90600052602060002001600091509150508054611db390613ad6565b80601f0160208091040260200160405190810160405280929190818152602001828054611ddf90613ad6565b8015611e2c5780601f10611e0157610100808354040283529160200191611e2c565b820191906000526020600020905b815481529060010190602001808311611e0f57829003601f168201915b505050505081565b6000600183604051611e469190613a90565b9081526020016040518091039020600001541115611feb57600582604051611e6e9190613a90565b908152602001604051809103902081908060018154018082558091505060019003906000526020600020016000909190919091509081611eae9190613cb3565b506001600360003373ffffffffffffffffffffffffffffffffffffffff1673ffffffffffffffffffffffffffffffffffffffff1681526020019081526020016000206003018054905011611f6b57600360003373ffffffffffffffffffffffffffffffffffffffff1673ffffffffffffffffffffffffffffffffffffffff16815260200190815260200160002060030160019080600181540180825580915050600190039060005260206000200160009091909190915055611fe1565b600360003373ffffffffffffffffffffffffffffffffffffffff1673ffffffffffffffffffffffffffffffffffffffff168152602001908152602001600020600301600181548110611fc057611fbf613ddf565b5b906000526020600020016000815480929190611fdb90613e0e565b91905055505b611fea33611ad9565b5b5050565b60006004826040516120019190613a90565b908152602001604051809103902060000154118015612083575060048160405161202b9190613a90565b908152602001604051809103902060040154600360003373ffffffffffffffffffffffffffffffffffffffff1673ffffffffffffffffffffffffffffffffffffffff1681526020019081526020016000206002015410155b1561223d576004816040516120989190613a90565b908152602001604051809103902060040154600360003373ffffffffffffffffffffffffffffffffffffffff1673ffffffffffffffffffffffffffffffffffffffff16815260200190815260200160002060020160008282546120fb91906139ec565b925050819055506004816040516121129190613a90565b908152602001604051809103902060040154600360006004846040516121389190613a90565b908152602001604051809103902060030160009054906101000a900473ffffffffffffffffffffffffffffffffffffffff1673ffffffffffffffffffffffffffffffffffffffff1673ffffffffffffffffffffffffffffffffffffffff16815260200190815260200160002060020160008282546121b69190613a20565b925050819055506007816040516121cd9190613a90565b9081526020016040518091039020339080600181540180825580915050600190039060005260206000200160009091909190916101000a81548173ffffffffffffffffffffffffffffffffffffffff021916908373ffffffffffffffffffffffffffffffffffffffff1602179055505b50565b600682805160208101820180518482526020830160208501208183528095505050505050818154811061227257600080fd5b9060005260206000200160009150915050805461228e90613ad6565b80601f01602080910402602001604051908101604052809291908181526020018280546122ba90613ad6565b80156123075780601f106122dc57610100808354040283529160200191612307565b820191906000526020600020905b8154815290600101906020018083116122ea57829003601f168201915b505050505081565b612317612d33565b6001826040516123279190613a90565b90815260200160405180910390206040518060c00160405290816000820154815260200160018201805461235a90613ad6565b80601f016020809104026020016040519081016040528092919081815260200182805461238690613ad6565b80156123d35780601f106123a8576101008083540402835291602001916123d3565b820191906000526020600020905b8154815290600101906020018083116123b657829003601f168201915b505050505081526020016002820180546123ec90613ad6565b80601f016020809104026020016040519081016040528092919081815260200182805461241890613ad6565b80156124655780601f1061243a57610100808354040283529160200191612465565b820191906000526020600020905b81548152906001019060200180831161244857829003601f168201915b50505050508152602001600382015481526020016004820160009054906101000a900473ffffffffffffffffffffffffffffffffffffffff1673ffffffffffffffffffffffffffffffffffffffff1673ffffffffffffffffffffffffffffffffffffffff1681526020016005820180546124de90613ad6565b80601f016020809104026020016040519081016040528092919081815260200182805461250a90613ad6565b80156125575780601f1061252c57610100808354040283529160200191612557565b820191906000526020600020905b81548152906001019060200180831161253a57829003601f168201915b5050505050815250509050919050565b6032600360003373ffffffffffffffffffffffffffffffffffffffff1673ffffffffffffffffffffffffffffffffffffffff1681526020019081526020016000206002015410156125b757600080fd5b6032600360003373ffffffffffffffffffffffffffffffffffffffff1673ffffffffffffffffffffffffffffffffffffffff168152602001908152602001600020600201600082825461260a91906139ec565b925050819055506032600860008282546126249190613a20565b9250508190555060006040518060c0016040528060018152602001848152602001600081526020013373ffffffffffffffffffffffffffffffffffffffff168152602001838152602001868152509050806004856040516126859190613a90565b90815260200160405180910390206000820151816000015560208201518160010190816126b29190613cb3565b506040820151816002015560608201518160030160006101000a81548173ffffffffffffffffffffffffffffffffffffffff021916908373ffffffffffffffffffffffffffffffffffffffff1602179055506080820151816004015560a08201518160050190816127239190613cb3565b5090505060006001600260003373ffffffffffffffffffffffffffffffffffffffff1673ffffffffffffffffffffffffffffffffffffffff168152602001908152602001600020805490506127789190613a20565b67ffffffffffffffff81111561279157612790612eb7565b5b6040519080825280602002602001820160405280156127c457816020015b60608152602001906001900390816127af5790505b50905060005b600260003373ffffffffffffffffffffffffffffffffffffffff1673ffffffffffffffffffffffffffffffffffffffff1681526020019081526020016000208054905081101561292957600260003373ffffffffffffffffffffffffffffffffffffffff1673ffffffffffffffffffffffffffffffffffffffff168152602001908152602001600020818154811061286557612864613ddf565b5b90600052602060002001805461287a90613ad6565b80601f01602080910402602001604051908101604052809291908181526020018280546128a690613ad6565b80156128f35780601f106128c8576101008083540402835291602001916128f3565b820191906000526020600020905b8154815290600101906020018083116128d657829003601f168201915b505050505082828151811061290b5761290a613ddf565b5b6020026020010181905250808061292190613e0e565b9150506127ca565b5084816001835161293a91906139ec565b8151811061294b5761294a613ddf565b5b602002602001018190525080600260003373ffffffffffffffffffffffffffffffffffffffff1673ffffffffffffffffffffffffffffffffffffffff16815260200190815260200160002090805190602001906129a9929190612d7f565b50505050505050565b6129ba612dd8565b7f0de6a2e310d9693ada04641a15f63e0c59a88a69bf180ba78ea0397f8e577d29600360008473ffffffffffffffffffffffffffffffffffffffff1673ffffffffffffffffffffffffffffffffffffffff168152602001908152602001600020600001600360008573ffffffffffffffffffffffffffffffffffffffff1673ffffffffffffffffffffffffffffffffffffffff16815260200190815260200160002060010154600360008673ffffffffffffffffffffffffffffffffffffffff1673ffffffffffffffffffffffffffffffffffffffff16815260200190815260200160002060020154600360008773ffffffffffffffffffffffffffffffffffffffff1673ffffffffffffffffffffffffffffffffffffffff168152602001908152602001600020600301600360008873ffffffffffffffffffffffffffffffffffffffff1673ffffffffffffffffffffffffffffffffffffffff16815260200190815260200160002060040154604051612b39959493929190614099565b60405180910390a1600360008373ffffffffffffffffffffffffffffffffffffffff1673ffffffffffffffffffffffffffffffffffffffff1681526020019081526020016000206040518060a0016040529081600082018054612b9b90613ad6565b80601f0160208091040260200160405190810160405280929190818152602001828054612bc790613ad6565b8015612c145780601f10612be957610100808354040283529160200191612c14565b820191906000526020600020905b815481529060010190602001808311612bf757829003601f168201915b50505050508152602001600182015481526020016002820154815260200160038201805480602002602001604051908101604052809291908181526020018280548015612c8057602002820191906000526020600020905b815481526020019060010190808311612c6c575b505050505081526020016004820154815250509050919050565b828054828255906000526020600020908101928215612cd6579160200282015b82811115612cd5578251825591602001919060010190612cba565b5b509050612ce39190612e07565b5090565b6040518060c00160405280600081526020016060815260200160008152602001600073ffffffffffffffffffffffffffffffffffffffff16815260200160008152602001606081525090565b6040518060c0016040528060008152602001606081526020016060815260200160008152602001600073ffffffffffffffffffffffffffffffffffffffff168152602001606081525090565b828054828255906000526020600020908101928215612dc7579160200282015b82811115612dc6578251829081612db69190613cb3565b5091602001919060010190612d9f565b5b509050612dd49190612e24565b5090565b6040518060a0016040528060608152602001600081526020016000815260200160608152602001600081525090565b5b80821115612e20576000816000905550600101612e08565b5090565b5b80821115612e445760008181612e3b9190612e48565b50600101612e25565b5090565b508054612e5490613ad6565b6000825580601f10612e665750612e85565b601f016020900490600052602060002090810190612e849190612e07565b5b50565b6000604051905090565b600080fd5b600080fd5b600080fd5b600080fd5b6000601f19601f8301169050919050565b7f4e487b7100000000000000000000000000000000000000000000000000000000600052604160045260246000fd5b612eef82612ea6565b810181811067ffffffffffffffff82111715612f0e57612f0d612eb7565b5b80604052505050565b6000612f21612e88565b9050612f2d8282612ee6565b919050565b600067ffffffffffffffff821115612f4d57612f4c612eb7565b5b612f5682612ea6565b9050602081019050919050565b82818337600083830152505050565b6000612f85612f8084612f32565b612f17565b905082815260208101848484011115612fa157612fa0612ea1565b5b612fac848285612f63565b509392505050565b600082601f830112612fc957612fc8612e9c565b5b8135612fd9848260208601612f72565b91505092915050565b60008060008060808587031215612ffc57612ffb612e92565b5b600085013567ffffffffffffffff81111561301a57613019612e97565b5b61302687828801612fb4565b945050602085013567ffffffffffffffff81111561304757613046612e97565b5b61305387828801612fb4565b935050604085013567ffffffffffffffff81111561307457613073612e97565b5b61308087828801612fb4565b925050606085013567ffffffffffffffff8111156130a1576130a0612e97565b5b6130ad87828801612fb4565b91505092959194509250565b600073ffffffffffffffffffffffffffffffffffffffff82169050919050565b60006130e4826130b9565b9050919050565b6130f4816130d9565b81146130ff57600080fd5b50565b600081359050613111816130eb565b92915050565b60006020828403121561312d5761312c612e92565b5b600061313b84828501613102565b91505092915050565b600081519050919050565b600082825260208201905092915050565b6000819050602082019050919050565b600081519050919050565b600082825260208201905092915050565b60005b838110156131aa57808201518184015260208101905061318f565b60008484015250505050565b60006131c182613170565b6131cb818561317b565b93506131db81856020860161318c565b6131e481612ea6565b840191505092915050565b60006131fb83836131b6565b905092915050565b6000602082019050919050565b600061321b82613144565b613225818561314f565b93508360208202850161323785613160565b8060005b85811015613273578484038952815161325485826131ef565b945061325f83613203565b925060208a0199505060018101905061323b565b50829750879550505050505092915050565b6000602082019050818103600083015261329f8184613210565b905092915050565b6000819050919050565b6132ba816132a7565b81146132c557600080fd5b50565b6000813590506132d7816132b1565b92915050565b600080604083850312156132f4576132f3612e92565b5b600083013567ffffffffffffffff81111561331257613311612e97565b5b61331e85828601612fb4565b925050602061332f858286016132c8565b9150509250929050565b60006020828403121561334f5761334e612e92565b5b600082013567ffffffffffffffff81111561336d5761336c612e97565b5b61337984828501612fb4565b91505092915050565b61338b816132a7565b82525050565b600082825260208201905092915050565b60006133ad82613170565b6133b78185613391565b93506133c781856020860161318c565b6133d081612ea6565b840191505092915050565b6133e4816130d9565b82525050565b600060c0820190506133ff6000830189613382565b818103602083015261341181886133a2565b90506134206040830187613382565b61342d60608301866133db565b61343a6080830185613382565b81810360a083015261344c81846133a2565b9050979650505050505050565b600060208201905061346e6000830184613382565b92915050565b6000806040838503121561348b5761348a612e92565b5b600061349985828601613102565b92505060206134aa858286016132c8565b9150509250929050565b600060208201905081810360008301526134ce81846133a2565b905092915050565b60006020820190506134eb60008301846133db565b92915050565b6000806040838503121561350857613507612e92565b5b600083013567ffffffffffffffff81111561352657613525612e97565b5b61353285828601612fb4565b925050602083013567ffffffffffffffff81111561355357613552612e97565b5b61355f85828601612fb4565b9150509250929050565b613572816132a7565b82525050565b613581816130d9565b82525050565b600060c08301600083015161359f6000860182613569565b50602083015184820360208601526135b782826131b6565b91505060408301516135cc6040860182613569565b5060608301516135df6060860182613578565b5060808301516135f26080860182613569565b5060a083015184820360a086015261360a82826131b6565b9150508091505092915050565b600060208201905081810360008301526136318184613587565b905092915050565b600060c08201905061364e6000830189613382565b818103602083015261366081886133a2565b9050818103604083015261367481876133a2565b90506136836060830186613382565b61369060808301856133db565b81810360a08301526136a281846133a2565b9050979650505050505050565b600060808201905081810360008301526136c981876133a2565b90506136d86020830186613382565b6136e56040830185613382565b6136f26060830184613382565b95945050505050565b600060c0830160008301516137136000860182613569565b506020830151848203602086015261372b82826131b6565b9150506040830151848203604086015261374582826131b6565b915050606083015161375a6060860182613569565b50608083015161376d6080860182613578565b5060a083015184820360a086015261378582826131b6565b9150508091505092915050565b600060208201905081810360008301526137ac81846136fb565b905092915050565b600080600080608085870312156137ce576137cd612e92565b5b600085013567ffffffffffffffff8111156137ec576137eb612e97565b5b6137f887828801612fb4565b945050602085013567ffffffffffffffff81111561381957613818612e97565b5b61382587828801612fb4565b935050604085013567ffffffffffffffff81111561384657613845612e97565b5b61385287828801612fb4565b9250506060613863878288016132c8565b91505092959194509250565b600081519050919050565b600082825260208201905092915050565b6000819050602082019050919050565b60006138a78383613569565b60208301905092915050565b6000602082019050919050565b60006138cb8261386f565b6138d5818561387a565b93506138e08361388b565b8060005b838110156139115781516138f8888261389b565b9750613903836138b3565b9250506001810190506138e4565b5085935050505092915050565b600060a083016000830151848203600086015261393b82826131b6565b91505060208301516139506020860182613569565b5060408301516139636040860182613569565b506060830151848203606086015261397b82826138c0565b91505060808301516139906080860182613569565b508091505092915050565b600060208201905081810360008301526139b5818461391e565b905092915050565b7f4e487b7100000000000000000000000000000000000000000000000000000000600052601160045260246000fd5b60006139f7826132a7565b9150613a02836132a7565b9250828203905081811115613a1a57613a196139bd565b5b92915050565b6000613a2b826132a7565b9150613a36836132a7565b9250828201905080821115613a4e57613a4d6139bd565b5b92915050565b600081905092915050565b6000613a6a82613170565b613a748185613a54565b9350613a8481856020860161318c565b80840191505092915050565b6000613a9c8284613a5f565b915081905092915050565b7f4e487b7100000000000000000000000000000000000000000000000000000000600052602260045260246000fd5b60006002820490506001821680613aee57607f821691505b602082108103613b0157613b00613aa7565b5b50919050565b60008190508160005260206000209050919050565b60006020601f8301049050919050565b600082821b905092915050565b600060088302613b697fffffffffffffffffffffffffffffffffffffffffffffffffffffffffffffffff82613b2c565b613b738683613b2c565b95508019841693508086168417925050509392505050565b6000819050919050565b6000613bb0613bab613ba6846132a7565b613b8b565b6132a7565b9050919050565b6000819050919050565b613bca83613b95565b613bde613bd682613bb7565b848454613b39565b825550505050565b600090565b613bf3613be6565b613bfe818484613bc1565b505050565b5b81811015613c2257613c17600082613beb565b600181019050613c04565b5050565b601f821115613c6757613c3881613b07565b613c4184613b1c565b81016020851015613c50578190505b613c64613c5c85613b1c565b830182613c03565b50505b505050565b600082821c905092915050565b6000613c8a60001984600802613c6c565b1980831691505092915050565b6000613ca38383613c79565b9150826002028217905092915050565b613cbc82613170565b67ffffffffffffffff811115613cd557613cd4612eb7565b5b613cdf8254613ad6565b613cea828285613c26565b600060209050601f831160018114613d1d5760008415613d0b578287015190505b613d158582613c97565b865550613d7d565b601f198416613d2b86613b07565b60005b82811015613d5357848901518255600182019150602085019450602081019050613d2e565b86831015613d705784890151613d6c601f891682613c79565b8355505b6001600288020188555050505b505050505050565b6000608082019050613d9a60008301876133db565b8181036020830152613dac81866133a2565b90508181036040830152613dc081856133a2565b90508181036060830152613dd481846133a2565b905095945050505050565b7f4e487b7100000000000000000000000000000000000000000000000000000000600052603260045260246000fd5b6000613e19826132a7565b91507fffffffffffffffffffffffffffffffffffffffffffffffffffffffffffffffff8203613e4b57613e4a6139bd565b5b600182019050919050565b7f506f737420646f6573206e6f7420657869737400000000000000000000000000600082015250565b6000613e8c601383613391565b9150613e9782613e56565b602082019050919050565b60006020820190508181036000830152613ebb81613e7f565b9050919050565b7f4e6f7420656e6f75676820616d6f756e74000000000000000000000000000000600082015250565b6000613ef8601183613391565b9150613f0382613ec2565b602082019050919050565b60006020820190508181036000830152613f2781613eeb565b9050919050565b60008154613f3b81613ad6565b613f458186613391565b94506001821660008114613f605760018114613f7657613fa9565b60ff198316865281151560200286019350613fa9565b613f7f85613b07565b60005b83811015613fa157815481890152600182019150602081019050613f82565b808801955050505b50505092915050565b600081549050919050565b600082825260208201905092915050565b60008190508160005260206000209050919050565b60008160001c9050919050565b6000819050919050565b600061400d61400883613fe3565b613ff0565b9050919050565b60006140208254613ffa565b9050919050565b6000600182019050919050565b600061403f82613fb2565b6140498185613fbd565b935061405483613fce565b8060005b8381101561408c5761406982614014565b614073888261389b565b975061407e83614027565b925050600181019050614058565b5085935050505092915050565b600060a08201905081810360008301526140b38188613f2e565b90506140c26020830187613382565b6140cf6040830186613382565b81810360608301526140e18185614034565b90506140f06080830184613382565b969550505050505056fea2646970667358221220216eb815ed9125eb3799f9858872ff49d51e97e82ec078589b43da53536074e864736f6c63430008120033",
	"linkReferences": {},
	"deployedLinkReferences": {}
}